:100000000C9446000C9465000C9465000C946500FB
:100010000C9465000C9465000C9465000C946500CC
:100020000C9465000C9465000C9465000C946500BC
:100030000C9465000C94DE000C9465000C94650033
:100040000C9465000C9465000C9465000C9465009C
:100050000C9465000C9465000C9465000C9465008C
:100060000C9465000C9465000C9465000C9465007C
:100070000C9465000C9465000C9465000C9465006C
:100080000C9465000C9465000C94650011241FBE4F
:10009000CFEFD0E4DEBFCDBF11E0A0E0B1E0EEE8ED
:1000A000F5E000E00BBF02C007900D92AA31B10746
:1000B000D9F721E0AAE1B1E001C01D92A732B20751
:1000C000E1F70E94A2020C94C5020C940000CF93A9
:1000D000DF9300D01F92CDB7DEB789837B836A831D
:1000E00089818A3031F48A819B81BC018DE00E9434
:1000F000670080EC90E0FC018081882F90E08072A6
:100100009927892BB1F386EC90E02981FC012083AB
:1001100080E090E00F900F900F90DF91CF910895C5
:10012000CF93DF93CDB7DEB781E890E02BE0FC0101
:10013000208388E890E02DE730E0FC0131832083C4
:100140008FE690E022E0FC01208384E890E0FC014F
:100150001182108280910E0190910F01A0911001E7
:10016000B091110180931B0190931C01A0931D017C
:10017000B0931E018FE590E02FE530E0F90120817A
:100180002068FC0120830000DF91CF910895CF9378
:10019000DF93CDB7DEB781E890E0FC01108200006C
:1001A000DF91CF910895CF93DF93CDB7DEB781E094
:1001B00080931A010000DF91CF9108951F920F9252
:1001C00000905F000F92112400905B000F922F931C
:1001D0003F934F935F936F937F938F939F93AF93CF
:1001E000BF93EF93FF93CF93DF93CDB7DEB78091AB
:1001F0001B0190911C01A0911D01B0911E0101975E
:10020000A109B10980931B0190931C01A0931D01CA
:10021000B0931E0180911B0190911C01A0911D01C2
:10022000B0911E01892B8A2B8B2B91F40E94D30055
:1002300080910E0190910F01A0911001B0911101D8
:1002400080931B0190931C01A0931D01B0931E018C
:100250000000DF91CF91FF91EF91BF91AF919F91FE
:100260008F917F916F915F914F913F912F910F905F
:1002700000925B000F9000925F000F901F90189506
:10028000CF93DF9300D000D0CDB7DEB769837A83F8
:100290008B839C8389819A81AB81BC8180930E0181
:1002A00090930F01A0931001B093110180910E0162
:1002B00090910F01A0911001B091110180931B0149
:1002C00090931C01A0931D01B0931E0100000F909C
:1002D0000F900F900F90DF91CF910895CF93DF9300
:1002E000CDB7DEB780912001909121018130910539
:1002F00069F18130910520F0029709F44FC074C074
:1003000020911401309115018091120190911301F7
:100310008217930768F481E090E090932101809325
:10032000200181E090E090931501809314015CC05E
:1003300010922101109220018091140190911501D9
:10034000019690931501809314014EC020911401E1
:10035000309115018091120190911301821793073A
:1003600068F482E090E0909321018093200181E085
:1003700090E0909315018093140136C081E090E0E5
:100380009093210180932001809114019091150197
:100390000196909315018093140126C020911401B9
:1003A00030911501809112019091130182179307EA
:1003B00058F4109221011092200181E090E0909376
:1003C0001501809314010FC082E090E09093210109
:1003D00080932001809114019091150101969093D2
:1003E000150180931401000080912001909121015A
:1003F0008130910551F08130910518F0029749F054
:100400000CC081E08093240108C082E08093240125
:1004100004C084E08093240100000000DF91CF91AC
:100420000895CF93DF93CDB7DEB7809125019091EA
:100430002601009719F0019739F14CC0209116015F
:10044000309117018091180190911901821793073B
:1004500068F481E090E0909326018093250181E08B
:1004600090E0909317018093160134C010922601FA
:100470001092250180911601909117010196909399
:1004800017018093160126C02091160130911701A3
:1004900080911801909119018217930758F41092D6
:1004A00026011092250181E090E09093170180933E
:1004B00016010FC081E090E0909326018093250102
:1004C00080911601909117010196909317018093E6
:1004D000160100008091250190912601009719F0E6
:1004E000019729F007C088E080931F0103C0109294
:1004F0001F0100000000DF91CF910895CF93DF939B
:10050000CDB7DEB78091220190912301892B29F488
:1005100010922301109222010000809122019091FB
:100520002301892B09F00AC085E290E03091240173
:1005300020911F01230FFC01208300000000DF91A8
:10054000CF910895CF93DF93CDB7DEB784E290E0EB
:100550002FEFFC01208385E290E0FC01108261E036
:1005600070E080E090E00E9440010E9490000E94B4
:100570006E010E9411020E947E02000080911A0109
:0E0580008823E1F310921A01F2CFF894FFCF16
:10058E0000000002000000006700000000000100F3
:0A059E0000002C0101000100E80339
:00000001FF
