:100000000C9446000C9465000C9465000C946500FB
:100010000C9465000C9465000C9465000C946500CC
:100020000C9465000C9465000C9465000C946500BC
:100030000C9465000C94DE000C9465000C94650033
:100040000C9465000C9465000C9465000C9465009C
:100050000C9465000C9465000C9465000C9465008C
:100060000C9465000C9465000C9465000C9465007C
:100070000C9465000C9465000C9465000C9465006C
:100080000C9465000C9465000C94650011241FBE4F
:10009000CFEFD0E4DEBFCDBF11E0A0E0B1E0ECE1F6
:1000A000F8E000E00BBF02C007900D92AE31B1073F
:1000B000D9F721E0AEE1B1E001C01D92A033B20753
:1000C000E1F70E94DC030C940C040C940000CF9325
:1000D000DF9300D01F92CDB7DEB789837B836A831D
:1000E00089818A3031F48A819B81BC018DE00E9434
:1000F000670080EC90E0FC018081882F90E08072A6
:100100009927892BB1F386EC90E02981FC012083AB
:1001100080E090E00F900F900F90DF91CF910895C5
:10012000CF93DF93CDB7DEB781E890E02BE0FC0101
:10013000208388E890E02DE730E0FC0131832083C4
:100140008FE690E022E0FC01208384E890E0FC014F
:100150001182108280910E0190910F01A0911001E7
:10016000B091110180931F0190932001A093210170
:10017000B09322018FE590E02FE530E0F901208176
:100180002068FC0120830000DF91CF910895CF9378
:10019000DF93CDB7DEB781E890E0FC01108200006C
:1001A000DF91CF910895CF93DF93CDB7DEB781E094
:1001B00080931E010000DF91CF9108951F920F924E
:1001C00000905F000F92112400905B000F922F931C
:1001D0003F934F935F936F937F938F939F93AF93CF
:1001E000BF93EF93FF93CF93DF93CDB7DEB78091AB
:1001F0001F0190912001A0912101B091220101974E
:10020000A109B10980931F0190932001A0932101BE
:10021000B093220180911F0190912001A0912101B2
:10022000B0912201892B8A2B8B2B91F40E94D30051
:1002300080910E0190910F01A0911001B0911101D8
:1002400080931F0190932001A0932101B09322017C
:100250000000DF91CF91FF91EF91BF91AF919F91FE
:100260008F917F916F915F914F913F912F910F905F
:1002700000925B000F9000925F000F901F90189506
:10028000CF93DF9300D000D0CDB7DEB769837A83F8
:100290008B839C8389819A81AB81BC8180930E0181
:1002A00090930F01A0931001B093110180910E0162
:1002B00090910F01A0911001B091110180931F0145
:1002C00090932001A0932101B093220100000F9090
:1002D0000F900F900F90DF91CF910895CF93DF9300
:1002E000CDB7DEB780912801909129018130910529
:1002F00069F18130910520F0029709F44FC074C074
:1003000020911401309115018091120190911301F7
:100310008217930768F481E090E09093290180931D
:10032000280181E090E090931501809314015CC056
:1003300010922901109228018091140190911501C9
:10034000019690931501809314014EC020911401E1
:10035000309115018091120190911301821793073A
:1003600068F482E090E0909329018093280181E075
:1003700090E0909315018093140136C081E090E0E5
:100380009093290180932801809114019091150187
:100390000196909315018093140126C020911401B9
:1003A00030911501809112019091130182179307EA
:1003B00058F4109229011092280181E090E0909366
:1003C0001501809314010FC082E090E09093290101
:1003D00080932801809114019091150101969093CA
:1003E000150180931401000080912801909129014A
:1003F0008130910551F08130910518F0029749F054
:100400000CC081E080932C0108C082E080932C0115
:1004100004C084E080932C0100000000DF91CF91A4
:100420000895CF93DF93CDB7DEB780912D019091E2
:100430002E01009719F0019739F14CC02091160157
:10044000309117018091180190911901821793073B
:1004500068F481E090E090932E0180932D0181E07B
:1004600090E0909317018093160134C010922E01F2
:1004700010922D0180911601909117010196909391
:1004800017018093160126C02091160130911701A3
:1004900080911801909119018217930758F41092D6
:1004A0002E0110922D0181E090E09093170180932E
:1004B00016010FC081E090E090932E0180932D01F2
:1004C00080911601909117010196909317018093E6
:1004D0001601000080912D0190912E01009719F0D6
:1004E000019729F007C088E08093230103C0109290
:1004F000230100000000DF91CF910895CF93DF9397
:10050000CDB7DEB780912A0190912B01892B29F478
:1005100010922B0110922A01000080912A019091E3
:100520002B01892B09F00DC085E290E030912C0160
:1005300020912301320F20912F01230FFC012083F2
:1005400000000000DF91CF910895CF93DF93CDB7E6
:10055000DEB78091240190912501009799F10197D0
:1005600009F060C080E290E0FC018081882F90E07B
:1005700084709927892BB1F420911A0130911B01C5
:1005800080911C0190911D018217930758F41092DD
:1005900025011092240181E090E090931B0180934B
:1005A0001A0140C081E090E09093250180932401DE
:1005B00080911A0190911B01019690931B018093E9
:1005C0001A0130C080E290E0FC018081882F90E029
:1005D00084709927892BC9F420911A0130911B014D
:1005E00080911C0190911D018217930770F0109269
:1005F00025011092240180911A0190911B0101960E
:1006000090931B0180931A010CC081E090E09093BD
:1006100025018093240181E090E090931B01809359
:100620001A0100008091240190912501009731F07A
:10063000019709F007C010922F0104C080E1809358
:100640002F0100000000DF91CF910895CF93DF9339
:10065000CDB7DEB7809126019091270181309105B9
:1006600091F18130910540F08230910509F441C04B
:10067000039709F454C06AC080E290E0FC018081D5
:10068000882F90E081709927892B39F481E090E0E0
:10069000909327018093260159C080E290E0FC01ED
:1006A0008081882F90E082709927892B39F482E02D
:1006B00090E0909327018093260148C01092270173
:1006C0001092260143C080E290E0FC018081882FD7
:1006D00090E081709927892B39F483E090E0909322
:1006E00027018093260132C0109227011092260123
:1006F0002DC080E290E0FC018081882F90E0827024
:100700009927892B39F483E090E090932701809317
:1007100026011CC0109227011092260117C080E20A
:1007200090E0FC018081882F90E080959095837007
:100730009927892B29F4109227011092260106C0CF
:1007400083E090E090932701809326018091260119
:10075000909127018130910531F08130910518F198
:10076000029789F025C080911C0190911D010A9784
:10077000E0F480911C0190911D01019690931D0160
:1007800080931C0112C080911C0190911D01039760
:1007900070F080911C0190911D01019790931D01B3
:1007A00080931C0104C0000003C0000001C00000D1
:1007B0000000DF91CF910895CF93DF93CDB7DEB7DF
:1007C00081E290E0FC01108282E290E02FEFFC01D8
:1007D000208384E290E02FEFFC01208385E290E00B
:1007E000FC01108261E070E080E090E00E94400136
:1007F0000E9490000E946E010E9411020E94260336
:100800000E94A5020E947E02000080911E018823A2
:0C081000E1F310921E01EECFF894FFCF30
:10081C000000000200000000670000000000010062
:0E082C0000002C0101000100E80301000200A1
:00000001FF
